:020000040800F2
:1000000080090020910100086509000881040008AA
:1000100000000000000000000000000000000000E0
:100020000000000000000000000000006909000856
:100030000000000000000000670900086B090008CC
:10004000A301000800000000A3010008A3010008AC
:10005000A3010008A301000869040008A301000827
:1000600000000000A30100081D040008A30100080F
:10007000A30100080F0A0008A30100080000000007
:10008000A30100080000000000000000A301000818
:1000900000000000A3010008A3010008A30100085C
:1000A00000000000A301000800000000A3010008F8
:1000B00000F002F800F040F80CA030C8083824180E
:1000C0002D18671EA246AB4654465D46AC4201D190
:1000D00000F032F87E460F3EB6460FCC0126334282
:1000E00000D0FB1A3343A246AB4618475415000014
:1000F00074150000103A02D378C878C1FAD85207B4
:1001000001D330C830C101D504680C6070470000CD
:100110000023002400250026103A01D378C1FBD823
:10012000520700D330C100D50B6070471FB500F0F7
:1001300061F81FBD10B510BD00F03DF91146FFF785
:10014000F5FF00F0D3FD00F055F903B4FFF7F2FF1F
:1001500003BC00F05BF9000030B40C490C684A683D
:1001600023681068C0181060241D121D8C4207D22D
:100170008A4208D20C604A6030BC40004008704798
:100180000C00DC3CF6E70A00DC3AF3E7EC00002068
:100190000748804707480047FEE7FEE7FEE7FEE71F
:1001A000FEE7FEE704480549054A064B7047000094
:1001B0000D0A0008B100000880030020800900201B
:1001C00080050020800500200B4A30B511460B4CFD
:1001D00060310B46DC3B0CC1372106E0020C8D0080
:1001E00012185A51064A504300190A46491E002A5D
:1001F000F4DC30BD0120E7E78C000020E119D66671
:10020000CD0D010001E004C0091F0429FBD28B07BA
:1002100001D50280801CC90700D0027070470029F8
:100220000BD0C30702D00270401C491E022904D320
:10023000830702D50280801C891EE3E70022EEE7D7
:100240000022DFE7002203098B422CD3030A8B42F2
:1002500011D300239C464EE003460B433CD40022BE
:1002600043088B4231D303098B421CD3030A8B42D0
:1002700001D394463FE0C3098B4201D3CB01C01A9E
:10028000524183098B4201D38B01C01A5241430969
:100290008B4201D34B01C01A524103098B4201D357
:1002A0000B01C01A5241C3088B4201D3CB00C01AC4
:1002B000524183088B4201D38B00C01A524143083C
:1002C0008B4201D34B00C01A5241411A00D2014661
:1002D0005241104670475DE0CA0F00D049420310FA
:1002E00000D3404253409C46002203098B422DD349
:1002F000030A8B4212D38901FC2212BA030A8B42F1
:100300000CD3890192118B4208D3890192118B423F
:1003100004D389013AD0921100E08909C3098B42C4
:1003200001D3CB01C01A524183098B4201D38B0107
:10033000C01A524143098B4201D34B01C01A5241AA
:1003400003098B4201D30B01C01A5241C3088B42EF
:1003500001D3CB00C01A524183088B4201D38B00DA
:10036000C01A5241D9D243088B4201D34B00C01A64
:100370005241411A00D201465241104663465B1079
:1003800001D34042002B00D54942704763465B10C1
:1003900000D3404201B50549002802DC491C084051
:1003A00000E00846C046C04602BD00BFFFFFFF7F19
:1003B000704770477047754600F024F8AE46050058
:1003C00069465346C008C000854618B020B5FFF7FF
:1003D000E9FE60BCB64600260027C0C5C0C5C0C542
:1003E000C0C5C0C5C0C5C0C5C0C5403D490849005D
:1003F0008D46704710B50446C046C0462046FFF7FC
:10040000A4FE10BD00487047F400002001491820E8
:10041000ABBEFEE7260002007047000070B5012069
:100420000F4C2168490513D42168890516D50D4E56
:100430003188112903D3BA490A6882430A60450208
:10044000C020014600F0CAFB30881030308004E044
:1004500085020020C02100F0C1FB656070BDC04670
:10046000000002408C01002080B504480168490763
:1004700003D50421016000F07DFB80BD1404014020
:10048000FEE7000081B005490A6802430A60096876
:1004900001400091009801B07047C046141002401E
:1004A00081B005490A6802430A6009680140009169
:1004B000009801B07047C0461C10024081B0054949
:1004C0000A6802430A60096801400091009801B07F
:1004D0007047C0461810024010B501460268007906
:1004E000002810D0002A15D04879204B022813D0BC
:1004F000012814D000281AD1586890435860186811
:100500001043186011E01948016891430160416887
:1005100091434160002010BD1868104301E0186845
:1005200090431860586810435860002000E0012094
:10053000897903290ED8C0467944097949008F4446
:1005400001020B0EE7E7D9689143D960996811431E
:10055000996010BD012010BD9968914301E0996830
:1005600011439960D9681143D96010BD000401405E
:10057000FEB5002700910C682346FB404AD00125B8
:10058000BD40254044D04A680192531E022B029779
:100590002B4613D26B438E685E4303275F4382680A
:1005A000BA43324382600099CA6862434668A643F0
:1005B00016434660FC43029F009903E06B4303240B
:1005C0005C43E4430A695A43C66826401643C66042
:1005D000019A022A16D12E0A01D0242200E02022FC
:1005E0004F698558002E114602D07643764301E0CC
:1005F0001E465E430F227243954377432F43475075
:100600000099029F4A685343026822401A430260DD
:100610007F1CB0E70020FEBD80B57D21C900FFF73B
:1006200011FE401ECE494860002088600520086009
:1006300080BDC046B0B5026852062AD40268164B87
:1006400013400A681A434B681343CA681A430B697C
:1006500013438A691A43CC6914434A6914430B6AE9
:100660001C43046044680D4D2540120C2A438C68DD
:1006700022434260E20A04D1012212034468144377
:100680004460012254030022A34203D1898C0161FA
:1006900000E001221046B0BD4000FFFFFBF0FFFF6D
:1006A000014908607047C04600000020B0B50468EA
:1006B0009C4A904204D01A4DA84206D0234608E036
:1006C00070239C434B6823430FE070239C434B688B
:1006D0002343A84209D0134CA04206D0924CA0421A
:1006E00003D0924CA0421C4604D103242402A3430D
:1006F000CC681C4304608B68C3620B8883629042A1
:1007000005D0894A904202D0884A904201D10969B5
:100710000163416901220A4342610020B0BDC04625
:100720000004004000200040FFB501231C03A1424B
:100730003FD010295AD001263402A14200D193E0C3
:10074000012900D0EAE0F143036A0B400362136918
:100750000B40046A0327BC431C4311680391516892
:100760002143456884696F4B984205D06E4B98428F
:1007700002D06E4B984213D13B029D4373025669DF
:1007800002969769D6699F432F4375003D430C231A
:100790009943029B5B08DB000B4391688900194376
:1007A000456073239C43039B1C438461D26842636E
:1007B000B2E001231903046A8C430462016A4768AA
:1007C00015685468039414690294C669554CA04294
:1007D00006D0554CA04203D0544CA04200D085E036
:1007E0009B039F4393699B013B4380E0016A102375
:1007F00099430162016A3023994313695B085C01E4
:100800000C43176851680901214345688369454EC7
:10081000B04205D0444EB04202D0444EB04219D14D
:100820000326B602B543546903943E469769D469DA
:100830000294BF00404C3C4037462C43029DED00E3
:100840002543C024A143039C6408E4010C43916840
:1008500089012143456073242402A3433C021C43C5
:100860008461D268826357E0016AA1430162314921
:10087000491C13691B020B40032102910902046AFF
:100880008C431C431168039153681B022343456842
:10089000C469244FB84205D0234FB84202D0234F39
:1008A000B84219D102990F03BD4356690196966962
:1008B000D769009737011E4E3E402E43009D6D01C3
:1008C000354389028B431C49091D019EB6020E4027
:1008D0001E4391688B023343456073218C43039917
:1008E0000C43C461D168C163036216E03B464360B8
:1008F00073231B029E432B023343C361D2680264FD
:100900000322120391430A4A1032029B1B03134035
:100910000B4303990903194301620023184604B0ED
:10092000F0BDC046002C0140004801400044014099
:10093000F0DFFFFFFFFDFFFFFCF7FFFF81B008497D
:100940000A680092401C01D30020C043009A00288E
:1009500004D00A68D203D2171018F8E701B0704724
:1009600010E000E0FEE7704770477047B0B52449DB
:100970000A68012002430A600A68D207FCD0010419
:10098000204D2A680A432A6029688903FCD5696AD0
:1009900001436962696A8907FCD53D2109046A68D7
:1009A0008A431121090451186960E96A0F229143B1
:1009B000E96201062A680A432A6029688901FCD590
:1009C0006968F02291436960072109026A688A43D5
:1009D0006A60696802220A4382436A6068680C217F
:1009E00001400829FAD1084C2046FFF715FE2046A1
:1009F000FFF756FE286B032188432863B0BDC0462D
:100A00000020024000100240006CDC02704780B5FC
:100A100000F002F880BD000005480168C90706D053
:100A200004494A68521C4A600121C9430160704769
:100A3000102C01405401002010B50020904C0B49AF
:100A4000402803D022181161001DF9E700F0F4F8E6
:100A50003220FFF773FF0020402804D02118002225
:100A60000A61001DF8E700F0E7F810BD0A0A0A0065
:100A7000FEB5834AD089411C88B200271028384629
:100A800000D00846D08183B2082B01D1194601E07D
:100A900001460839082B01D3084600E0083080B22F
:100AA0000090103201933846103022D00292D819AB
:100AB0000099CE19FF240028254608D0C1174840C8
:100AC000401A05214143FF20FFF7BCFB0546002EDD
:100AD00008D0F0174640301A05214143FF20FFF7A8
:100AE000B1FB044628042043029A01C27F1E019BE9
:100AF000D9E7FEBD70B5624C2089401C81B2102937
:100B000000D10020208185B21026502E10D0002D5B
:100B100009D0E81729464140081A05214143FF2022
:100B2000FFF790FB00E0FF20A0516D1E361DECE7A3
:100B300070BDC04670B5524CA088401C81B21029CF
:100B400000D10020A08085B21026502E10D0002D9C
:100B500008D0E81729464140081A81B2FF20FFF764
:100B600071FB00E0FF200004A0516D1E361DECE774
:100B700070BDC046B0B5EFF3108072B60A2000F029
:100B80004BFD072000F052FB044640060BD5124DEA
:100B9000A91C6120202200F033FB0720402100F037
:100BA000F5FB01202870A0060AD4E00611D5072025
:100BB000102100F0EBFB00F0D1FA00F045FB08E05B
:100BC0000720202100F0E2FB00F03EFB024801215B
:100BD000417062B6B0BDC04668010020FEB502910A
:100BE00005461720441B26480088019018262846F1
:100BF0003146FFF727FB0746029885421AD2182193
:100C00002846FFF71FFB01994018102801D3002048
:100C10000BE07E43A1198000194A10180069C840F2
:100C2000C00701D0262000E0122017494855641E55
:100C30006D1CDBE7FEBDC046B0B5114D002028801D
:100C40000321CC012146FFF7C9FF0E490A680120A4
:100C500082430A600C4ACA604A680C4B13401A1956
:100C60004A600A68202313430B600A6802430A6043
:100C70001021298006490A6802430A60B0BDC046B7
:100C80008C01002030000240DC0100200000FFFF4A
:100C900000040040AB2809D3FF214840032242430F
:100CA000114B4343981809044018704755215628A2
:100CB0000BD3C943081AC1B2032002024A430220DF
:100CC000C0434843FF3010437047081AC0B20321A5
:100CD00009044143034A4243FF200002101808431D
:100CE0007047C04600FDFFFF0000FDFFA6B00124D5
:100CF0002046FFF7E3FB2007FFF7D2FBFF2005901C
:100D00000006F7490A68824303200C9080071018F8
:100D10000860FFF72BFEF3481B90042008901A9000
:100D200000261596A005F04DA84760040A90A84734
:100D3000A0040790A8470920C5060827AF62102025
:100D40000990A8620F200002E8490A6882430A60FD
:100D50003020C043E9680140E9602968014029600A
:100D60001AA8FFF7B9FB14961396129611940497DC
:100D7000109710AF28463946FFF7FAFB14961396E2
:100D80000F96129611940998109028463946FFF74D
:100D9000EFFBD74E3068D74908403060D64F40202F
:100DA0000D9038602046D04988477068D149084086
:100DB0007060A00206903860D049D1480860D148E0
:100DC00008600C98074648600E942003421E8A6013
:100DD000CA685207FCD1CC4A0A600B90FFF76EFB41
:100DE0000A98FFF74FFB0F9E1F961E961D961C97A5
:100DF00002201B9007460A90202003901A901AACFC
:100E0000C24A2846214690471F961E961D9629469F
:100E100002950C9D1C951B970D981A90084621462B
:100E2000BA4A90471F961E961D961C951B978020C8
:100E300001901A9002982146B44A90471896179646
:100E40000E99480215901496139608020F460290C8
:100E5000001D119010960720199000021290099D14
:100E60001695AB4C10A92046FFF7E4FB6068A84339
:100E7000606060680499084360601096F802099009
:100E8000FFF71CFB05980002994A91688143916025
:100E9000780399490860149613969E48129011960B
:100EA0009D4C10A92046FFF701FC019DE9432068F5
:100EB00008400A460491206098480930A168014022
:100EC000A1607020C1430591606808406060A0681F
:100ED0001040A06021AF14213846FFF7B1F91796F2
:100EE000169615960A98FFF7DBFA8D4C20688B4909
:100EF0000840103020600C9A1003216801432160E3
:100F0000206803990843206020680D998843206079
:100F10002068284320601002216881430298081845
:100F200020603E80900221688143216024963B200E
:100F3000239022967B4D28463946FFF7B7FB286859
:100F4000049F38402860E86909990843E8611196D0
:100F50001296139614966020109010AA28460B99AA
:100F6000FFF7E2FBE86906998843E861686805993C
:100F700008406860A8683840A8600798FFF782FAC0
:100F80000E9F1F971E961D961C960A9E1B961A96DC
:100F900065481AA95D4A90475D4A10680D99084353
:100FA000106062480168089A11430160C1681143EA
:100FB000C1605949C8683843C86008683843086048
:100FC000286A0B9B18432862F803696C0143696423
:100FD000E8681843E8602868384328604035A56011
:100FE00020681043206020683043206000F0C2F881
:100FF000FFF722FD4E4E4F4D504F4F4C7068B16879
:10100000411A332906D3A2202870284600F040F95F
:101010007068B0603178012908D000290AD10F9991
:10102000402907D000226250091DF9E70F2000F087
:10103000EFF97068F168401A3968884228D9307829
:10104000811E052919D8C0467944097949008F4481
:101050000205080B0E11FFF76DFD0DE000F0A4FA7C
:101060000AE0FFF747FD07E000F018FA04E000F09F
:1010700057FA01E0FFF7FCFC3078082804D1C820BB
:10108000386000F0E9F901E00A2038607068F0602B
:10109000EFF3108072B6FFF7CFFD62B670780028CC
:1010A00007D030697168081AFB2804D300207070DB
:1010B00001E000F07BF9307800280CD032697168CB
:1010C0008A1A1F4B9A4206D33161082801D30E9821
:1010D00000E0401C307009480B4901608EE7C046B3
:1010E00020ED00E001000100850400080800014037
:1010F00004E400E0FFFF00FF00E100E000300040FA
:10110000CCCC000055550000AAAA000071050008CB
:10111000003001407FBB0000002C0140EFBFFFFF0B
:101120003000024000040040000400480004014078
:10113000540100205C0300209C01002004000020DA
:1011400089130000B0B5984C10252561E22000F00D
:1011500057FA012000F060FA2560B0BDB0B5924C9E
:1011600010252561E12000F04BFA012000F054FA2F
:101170002560B0BDF8B57848082101601E4C2046B6
:1011800000F04AFA00250A211C4F2846B84720469D
:1011900000F042FA012630462946B847022031467F
:1011A000B847032420463146B84704202946B847AB
:1011B00000F090F81D2007263146B8471C2029462C
:1011C000B84770213046B84705205121B84706205E
:1011D0000146B84710205F4D2946224600F0BEF870
:1011E0000B202946224600F0B9F811202021B847EB
:1011F00000F02AF8F8BDC046881300008D130008DF
:10120000F8B514460D460646674810270761304674
:1012100000F0F6F9002C06D0304600F0E7F928700F
:101220006D1C641EF6E760480760F8BD70B50446A3
:101230005D4D10262E6100F0D9F9072C02D0FF2059
:1012400000F0D4F92E6070BDB0B500252846FFF738
:10125000EDFF014603242143284600F097F81020B3
:101260000A4D2946224600F079F80A2029462246EE
:1012700000F074F84C4808210160962000F0CCF989
:10128000FFF760FFFFF76AFFB0BDC0460C0000200B
:10129000B0B50446EFF3108072B600F045F80025B3
:1012A0002846FFF7C3FFFC210140891C284600F0B7
:1012B0006DF8962000F0B0F9A0202022214600F021
:1012C00019F8394C082525600F2000F0A5F9256193
:1012D00062B6B0BDB0B5344C10252561502000F089
:1012E0008FF9012000F098F9732000F089F925604A
:1012F000B0BDC046F8B514460D462B4908270F610E
:1013000010260E6100F07CF9012000F085F9002C18
:1013100005D0287800F074F96D1C641EF7E72248A8
:1013200006600760F8BDC046B0B51020094C032523
:1013300021462A4600F012F80A2021462A4600F0EB
:101340000DF8054808210160FFF7FCFEFFF706FFD6
:10135000B0BDC0460900002028000048F8B514467A
:101360000D46114E102737612021084300F048F93F
:10137000012000F051F9002C05D0287800F040F948
:101380006D1C641EF7E73760F8BDC04670B50C46AB
:10139000054D10262E612021084300F031F920462A
:1013A00000F02EF92E6070BD180000481448017836
:1013B000002924D013490A78A12A1ED14978C029CE
:1013C00007D11149097800290DD0104A1170002168
:1013D0000DE0C32911D10C49097800290DD0082945
:1013E00004D3012103E00949097800E0491C064AB9
:1013F0000123537011705168116100210170704711
:10140000680100206A01002054010020080000202B
:10141000F8B504460520010273484088401C82B29A
:1014200000268A42314600D001466F4841808FB283
:101430003546402D0FD030462146FEF703FFC01938
:10144000C0B2FFF727FC6849491908610120000272
:1014500036182D1DEDE7F8BDF8B500260E4F402ECD
:1014600019D0B847FF242146FEF7F6FE0D46B847CF
:101470002146FEF7F1FE2806000A090289B20D187E
:10148000B8472146FEF7E8FEC8B228185649891920
:101490000861361DE3E7F8BD59010008FEB5524A60
:1014A0005089411C88B200271028384600D00846D1
:1014B000508183B2082B01D1194601E00146083959
:1014C000082B01D3084600E0083080B200901032AB
:1014D00001933846103022D00292D8190099CE19C3
:1014E000FF2500282C4608D0C1174840401A052186
:1014F0004143FF20FEF7A6FE0446002E08D0F01759
:101500004640301A05214143FF20FEF79BFE054669
:1015100028022043029A01C27F1E019BD9E7FEBD2B
:10152000FEB5314A9089411C88B200271028384600
:1015300000D00846908183B2082B01D1194601E002
:1015400001460839082B01D3084600E0083080B274
:101550000090103201933846103023D00292D819EF
:101560000099CE19FF240028254608D0C11748400D
:10157000401A05214143FF20FEF764FE0546002E78
:1015800008D0F0174640301A05214143FF20FEF7EE
:1015900059FE0446280421020143029A02C27F1E1A
:1015A000019BD8E7FEBDC04670B50F4CE088401CDB
:1015B00081B2102900D10020E08085B21026502E83
:1015C00011D0002D09D0E81729464140081A0521FD
:1015D0004143FF20FEF736FE00E0FF200002A0514D
:1015E0006D1E361DEBE770BD8C01002009490A68AD
:1015F0009207FCD508710868C007FCD008797047CD
:1016000004490A689207FCD508710868C007FCD035
:101610004868704708300140E0B50190064800680E
:101620000649FEF70FFE0199414301910198411EC1
:1016300001910028FAD18CBD00000020405489009F
:10164000601600080000002010000000F4000008F0
:10165000701600081000002070090000100100083A
:1016600000127A000A00000001A5A6A7A7A6A500FF
:04000005080000B13E
:00000001FF
