:020000040800F2
:10000000B8060020550100089D050008A10300085E
:1000100000000000000000000000000000000000E0
:10002000000000000000000000000000A105000822
:1000300000000000000000009F050008A305000864
:100040006701000800000000670100086701000860
:1000500067010008650300088903000867010008BC
:100060000000000067010008670100086701000840
:100070006701000867010008670100080000000030
:100080006701000800000000000000006701000890
:100090000000000067010008670100086701000810
:1000A0000000000067010008000000006701000870
:1000B00000F002F800F03EF80CA030C80838241810
:1000C0002D18671EA246AB4654465D46AC4201D190
:1000D00000F030F87E460F3EB6460FCC0126334284
:1000E00000D0FB1A3343A246AB4618475C0D000014
:1000F0007C0D0000103A02D378C878C1FAD85207B4
:1001000001D330C830C101D504680C6070470000CD
:100110000023002400250026103A01D378C1FBD823
:10012000520700D330C100D50B6070471FB51FBD0B
:1001300010B510BD00F0E3F81146FFF7F7FF00F02F
:10014000FDFA00F0FBF803B4FFF7F2FF03BC00F088
:1001500001F900000748804707480047FEE7FEE72F
:10016000FEE7FEE7FEE7FEE704480549054A064BC1
:10017000704700003D060008B1000008B8000020EC
:10018000B8060020B8020020B802002000220309AF
:100190008B422CD3030A8B4211D300239C464EE0A2
:1001A00003460B433CD4002243088B4231D303095E
:1001B0008B421CD3030A8B4201D394463FE0C30910
:1001C0008B4201D3CB01C01A524183098B4201D328
:1001D0008B01C01A524143098B4201D34B01C01A13
:1001E000524103098B4201D30B01C01A5241C3088B
:1001F0008B4201D3CB00C01A524183088B4201D3FA
:100200008B00C01A524143088B4201D34B00C01AE5
:100210005241411A00D201465241104670475DE0FA
:10022000CA0F00D04942031000D3404253409C46BD
:10023000002203098B422DD3030A8B4212D389017A
:10024000FC2212BA030A8B420CD3890192118B4211
:1002500008D3890192118B4204D389013AD09211BB
:1002600000E08909C3098B4201D3CB01C01A524176
:1002700083098B4201D38B01C01A524143098B423F
:1002800001D34B01C01A524103098B4201D30B0128
:10029000C01A5241C3088B4201D3CB00C01A52414D
:1002A00083088B4201D38B00C01A5241D9D2430834
:1002B0008B4201D34B00C01A5241411A00D2014671
:1002C0005241104663465B1001D34042002B00D5DB
:1002D0004942704763465B1000D3404201B505496F
:1002E000002802DC491C084000E00846C046C04621
:1002F00002BD00BFFFFFFF7F704770477047754624
:1003000000F024F8AE46050069465346C008C00018
:10031000854618B020B5FFF727FF60BCB64600261B
:100320000027C0C5C0C5C0C5C0C5C0C5C0C5C0C503
:10033000C0C5403D490849008D46704710B5044688
:10034000C046C0462046FFF7FEFE10BD004870477D
:100350001000002001491820ABBEFEE72600020075
:100360007047000010B50D4C2068C00703D0012075
:10037000206000F07FF92068800703D5022020600C
:1003800000F07EF910BDC04680B5044801684907F9
:1003900003D50421016000F079F980BD1404014007
:1003A000FEE7000010B5014602680079002810D071
:1003B000002A15D04879204B022813D0012814D0E8
:1003C00000281AD158689043586018681043186084
:1003D00011E019480168914301604168914341600F
:1003E000002010BD1868104301E0186890431860A1
:1003F000586810435860002000E0012089790329E3
:100400000ED8C0467944097949008F4401020B0E89
:10041000E7E7D9689143D96099681143996010BDA5
:10042000012010BD9968914301E0996811439960DA
:10043000D9681143D96010BD00040140F0B582B005
:100440000C68002C4DD000220091012595402540DC
:1004500043D04E68731E022B01962B4612D26B437B
:100460008E685E4303275F438168B94331438160EF
:100470000099C96861434668A6430E434660FC4341
:10048000009903E06B4303245C43E4430F695F433B
:10049000C66826403E43C660019E022E16D12E0A33
:1004A00001D0242500E020254F6901954559002EF3
:1004B00002D07643764301E01E465E430F2171432E
:1004C0008D4377432F430199475000994D686B4303
:1004D000056825401D4305600C68521C2346D34027
:1004E000B3D1002002B0F0BD80B57D21C900FFF777
:1004F0004DFE401E284948600020886005200860A5
:1005000080BDC046B0B5026852062AD40268164BB8
:1005100013400A681A434B681343CA681A430B69AD
:1005200013438A691A43CC6914434A6914430B6A1A
:100530001C43046044680D4D2540120C2A438C680E
:1005400022434260E20A04D10122120344681443A8
:100550004460012254030022A34203D1898C01612B
:1005600000E001221046B0BD4000FFFFFBF0FFFF9E
:100570006E4908607047C04681B007490A6800921A
:10058000401C01D30020C043009A0A68D203D2174E
:100590001018FAD101B0704710E000E0FEE7704794
:1005A0007047704710B522490A68012002430A606B
:1005B0000A68D207FCD002041E490B6813430B6083
:1005C0000A689203FCD54A6A02434A624A6A920761
:1005D000FCD53D2212044B689343112212049A1851
:1005E0004A60CA6A0F239A43CA6202060B68134321
:1005F0000B600A689201FCD54A68F0239A434A606E
:10060000072212024B6893434B604A68022313434C
:1006100083434B6048680C220240082AFAD1064CFA
:100620002046FFF761FF2046FFF7A2FF10BDC0463E
:100630000020024000100240006CDC027047000005
:1006400070B5002815D00446EF4D02262E600A2012
:10065000FFF792FF2E61012C0BD03220FFF78CFFA9
:100660002E600A20FFF788FF2E61641EE0B2012889
:10067000F3D170BD01480121017070477000002066
:1006800001480121017070477100002070B582B0EF
:10069000EFF3108072B60A200190EA480068EA4938
:1006A000FFF774FD0199414301910198411E0191A9
:1006B0000028FAD1E24E10243461072000F0AEFB8E
:1006C0000546346040060FD561201949202200F00C
:1006D0004DFA3461272000F0ABFB402000F0A8FB6E
:1006E0003460144801210170A8060ED4E80619D51B
:1006F0003461272000F09CFB204600F099FB346019
:1007000000F084F900F04AFA0CE03461272000F090
:100710008FFB202000F08CFB346000F03FFA06488D
:100720000121017062B602B070BDC0460000002019
:100730007400002072000020730000209AB0974CD3
:10074000606801210843606060680840109010985C
:1007500008070F46A1680143A160A16801401091FC
:100760001098FF20019000068D490A6882430323F8
:1007700098071D46089310180860FFF713FF894873
:100780000B900A9700261596B80521680143216051
:100790002168014009910998790420680843206084
:1007A00020680391084009900998B8042168014322
:1007B000216021680140099109980920C40602209E
:1007C0000790A06208200690A0621020A062034655
:1007D0000590754801680F2291430160110202687B
:1007E0008A43026001681943E02291430160E843B3
:1007F000E1680140E1603021C943E2680A40E260FB
:100800000C22D243694BDD681540DD602568054048
:1008100025602068084020601868104018600AAD04
:100820002846FFF7BFFDAF71AF8004970420029008
:100830000A902846FFF7B6FD0798A871AF800A9086
:1008400007462846FFF7AEFD1496139612960498B5
:100850001190109710AD20462946FFF7EFFD149632
:1008600013961296049F11970698109020462946D9
:10087000FFF7E4FD149613961296119705981090C1
:10088000009420462946FFF7D9FD019B18024849EC
:100890000A6882430A60474A202010601B040D68E2
:1008A0009D430D60402104911160434F43493960DD
:1008B00043493960089979604249B960FA6852073A
:1008C000FCD1414D3D60491C344B5A680A435A6083
:1008D0005A680A40109210991968039A11431960D6
:1008E0001968114010910F960E960D9608990C916B
:1008F00007990B910A9010980AA90391009C204631
:10090000FFF79CFD0F960E960D9608980C90079891
:100910000B9004980A9020460399FFF78FFD0F96DD
:100920000E960D9608980C9007980B9080200A90D0
:1009300020460399FFF782FD189617961496139692
:100940001096412080001190FC30159007201990DE
:1009500000021290059E16961C4C10A92046FFF727
:10096000D1FD6068B04360606068069908436060CC
:10097000206804990843206015480168029A1143D1
:100980000160C1681143C16000F060F80520FFF705
:1009900057FE00F017FA3D60FBE7C0461410024016
:1009A00020ED00E0010002000800014000040048C2
:1009B00004E400E000E100E000300040CCCC0000A6
:1009C00055550000FF0F0000AAAA000000300140AA
:1009D00000040140B0B582B0D44C10252561E2205E
:1009E00000F026FA01200190D1480068D149FFF7B4
:1009F000CDFB0199414301910198411E01910028CD
:100A0000FAD1256002B0B0BD18000048B0B582B080
:100A1000E94C10252561E12000F00AFA012001903F
:100A2000E6480068E649FFF7B1FB019941430191AF
:100A30000198411E01910028FAD1256002B0B0BD95
:100A4000180000480000002040548900F0B583B031
:100A5000D94F08203861444D0195D84E3068D849A7
:100A6000FFF794FB0199414301910198411E0191C7
:100A70000028FAD110243C61202000F0D9F90A2086
:100A800000F0D6F93C6002953068CD49FFF77EFB57
:100A90000299414302910298411E02910028FAD125
:100AA0003C61212000F0C4F90025284600F0C0F97F
:100AB0003C603C61222000F0BBF90126304600F08A
:100AC000B7F93C603C61232000F0B2F9304600F0F9
:100AD000AFF93C603C61242000F0AAF9284600F000
:100AE000A7F93C6000F0DCF83C613D2000F0A0F983
:100AF000072000F09DF93C603C613C2000F098F933
:100B0000284600F095F93C603C61272000F090F900
:100B1000702000F08DF93C603C61252000F088F9E0
:100B2000512000F085F93C603C61262000F080F9FE
:100B3000062000F07DF93C608A4D032620462946B8
:100B4000324600F013F90B202946324600F00EF928
:100B50003C61312000F06CF9202000F069F93C6024
:100B600000F01CF803B0F0BD88130000F0B581B0B0
:100B700014460D460646904810270761304600F09F
:100B800057F9002C06D0304600F048F92870641E52
:100B90006D1CF6E78848076001B0F0BDF0B581B084
:100BA000854F10243C61002000F038F9FF2000F050
:100BB00035F906463C603C61202000F039F90325F8
:100BC0002E43304600F034F93C60114E2046314649
:100BD0002A4600F0CBF80A2031462A4600F0C6F833
:100BE0000820386096200090744800687449FFF728
:100BF000CDFA0099414300910098411E00910028D0
:100C0000FAD1FFF7E7FEFFF701FF01B0F0BDC046E4
:100C100007000020F0B583B00446EFF3108072B6F1
:100C200000F08AF8644E10273761002000F0F6F8D3
:100C3000FF2000F0F3F8054637603761202000F010
:100C4000F7F8FC202840801C00F0F2F8376096206E
:100C500001905A4D28685A49FFF798FA0199414383
:100C600001910198411E01910028FAD1A020202273
:100C7000214600F033F8082434600F2002902868E1
:100C80004F49FFF783FA0299414302910298411EAE
:100C900002910028FAD1346162B603B0F0BDC046BB
:100CA000B0B582B0444C10252561502000F0C0F84A
:100CB00001200190414800684149FFF767FA019916
:100CC000414301910198411E01910028FAD17320FE
:100CD00000F0AEF8256002B0B0BDC046F0B581B0FE
:100CE00014460D46344908270F6110260E6100F0A6
:100CF0009FF801200090314800683149FFF746FA1B
:100D00000099414300910098411E00910028FAD1BA
:100D100004E0287800F08CF8641E6D1C002CF8D1DB
:100D200025480660076001B0F0BDC04618000048C5
:100D30000000002040548900B0B51020094C032564
:100D400021462A4600F012F80A2021462A4600F0E1
:100D50000DF8054808210160FFF73CFEFFF756FE3D
:100D6000B0BDC0460400002028000048F0B581B0A6
:100D700014460D46104E102737612021084300F01D
:100D800057F8012000900D4800680D49FFF7FEF963
:100D90000099414300910098411E00910028FAD12A
:100DA00004E0287800F044F8641E6D1C002CF8D193
:100DB000376001B0F0BDC0461800004800000020B8
:100DC00040548900B0B5104C207800281BD00F4843
:100DD0000078A22812D10E4D2878002801D0C02119
:100DE00004E00C4D2878002808D0C3210A4841703F
:100DF000A1210170FFF70EFF002028700120FFF7EE
:100E00001FFC00202070B0BD720000207400002084
:100E100070000020710000209400002009490A6839
:100E20009207FCD508710868C007FCD008797047A4
:100E300004490A689207FCD508710868C007FCD00D
:100E40004868704708300140680E00080000002024
:100E500010000000F4000008780E000810000020C8
:100E6000A80600001001000800127A00A7A6A5A598
:080E7000A6A70000000000002D
:04000005080000B13E
:00000001FF
